:100000000C942A000C9447000C9447000C9478013F
:100010000C9447000C9447000C9447000C94470044
:100020000C9447000C9447000C9447000C94470034
:100030000C9447000C9447000C9447000C94470024
:100040000C9447000C9447000C9447000C94470014
:100050000C94470011241FBECFE5D8E0DEBFCDBF12
:1000600010E0A0E6B0E0E2E1FAE002C005900D92F7
:10007000A236B107D9F720E0A2E6B0E001C01D9298
:10008000A336B207E1F70E946F010C9407050C94A8
:10009000000060E070E080E090E00E94480163E0D2
:1000A00070E080E090E00E94480166E070E080E04F
:1000B00090E00E94480167E070E082E090E00E94DA
:1000C000480164E070E082E090E00E94480161E055
:1000D00070E082E090E00E94480162E081E00E94CE
:1000E0003B010E94BC020E94AC0281E00C94AE0273
:1000F000EF92FF921F93CF93DF937C01EB018881F6
:10010000833059F561E070E082E090E00E94550193
:1001100064E070E082E090E00E94620167E070E0DD
:1001200082E090E00E94620160E070E080E090E098
:100130000E94550163E070E080E090E00E9462015F
:1001400066E070E080E090E00E946201188268E85A
:1001500073E180E090E00E94BF0288818823A9F1CA
:10016000863099F18881843009F07FC061E070E0C9
:1001700082E090E00E94620164E070E082E090E042
:100180000E94620167E070E082E090E00E94550109
:1001900060E070E080E090E00E94620163E070E067
:1001A00080E090E00E94620166E070E080E090E014
:1001B0000E94550186E0888368E873E180E090E062
:1001C0000E94BF02F701108250C060E070E080E042
:1001D00090E00E94620166E070E080E090E00E94A2
:1001E000620161E070E082E090E00E94620167E0FD
:1001F00070E082E090E00E9462018881863051F4D4
:1002000067E070E082E090E00E94550183E088831F
:1002100015E004C08111FCCF84E0F9CF63E070E009
:1002200080E090E00E94550164E070E082E090E0A0
:100230000E94550164EF71E080E090E00E94BF02EF
:1002400063E070E080E090E00E94620164E070E0B2
:1002500082E090E00E94620164EF71E080E090E053
:100260000E94BF021150D1F67DCFDF91CF911F9137
:10027000FF90EF900895843038F4683038F440E00F
:100280000E94C00180E0089582E0089581E0089511
:10029000843038F4683038F441E00E94C00180E0D6
:1002A000089582E0089581E00895843038F468303C
:1002B00038F441E00E94360280E0089582E008951B
:1002C00081E00895843038F4683038F440E00E94CA
:1002D000360280E0089582E0089581E008950E944A
:1002E000490060E670E082E690E00E947800F9CF75
:1002F0001F920F920FB60F9211242F933F934F939B
:100300005F936F937F938F939F93AF93BF93EF937D
:10031000FF9380916200811122C0809160008D7FE7
:100320008430E9F060E070E080E090E00E946201DB
:1003300061E070E082E090E00E94550163E070E0CF
:1003400080E090E00E94550164E070E082E090E07F
:100350000E9455011092600081E080936200FF913D
:10036000EF91BF91AF919F918F917F916F915F912D
:100370004F913F912F910F900FBE0F901F901895A6
:10038000843008F06DC0683008F06CC08230B9F17C
:10039000833009F44CC08130C9F041110AC02AB33E
:1003A00081E090E001C0880F6A95EAF7809582238A
:1003B0000BC0413009F058C02AB381E090E001C081
:1003C000880F6A95EAF7822B8ABB48C041110AC0A0
:1003D00027B381E090E001C0880F6A95EAF7809525
:1003E00082230BC0413009F03FC027B381E090E089
:1003F00001C0880F6A95EAF7822B87BB2FC0411195
:100400000AC024B381E090E001C0880F6A95EAF742
:10041000809582230AC0413039F524B381E090E011
:1004200001C0880F6A95EAF7822B84BB17C041117F
:100430000AC021B381E090E001C0880F6A95EAF715
:10044000809582230AC0413079F421B381E090E0A5
:1004500001C0880F6A95EAF7822B81BB80E008957E
:1004600082E0089581E0089583E00895843008F0E3
:100470006DC0683008F06CC08230B9F1833009F487
:100480004CC08130C9F041110AC02BB381E090E02B
:1004900001C0880F6A95EAF7809582230BC041302E
:1004A00009F058C02BB381E090E001C0880F6A9535
:1004B000EAF7822B8BBB48C041110AC028B381E008
:1004C00090E001C0880F6A95EAF7809582230BC0FF
:1004D000413009F03FC028B381E090E001C0880FAF
:1004E0006A95EAF7822B88BB2FC041110AC025B359
:1004F00081E090E001C0880F6A95EAF78095822339
:100500000AC0413039F525B381E090E001C0880F81
:100510006A95EAF7822B85BB17C041110AC022B346
:1005200081E090E001C0880F6A95EAF78095822308
:100530000AC0413079F422B381E090E001C0880F15
:100540006A95EAF7822B82BB80E0089582E00895E5
:1005500081E0089584E0089578940895813019F435
:1005600084B7806404C0811103C084B78F7B84BFCB
:100570008BB780628BBF089513BE12BE08958F9211
:100580009F92AF92BF92CF92DF92EF92FF92CF9362
:10059000DF930E9438044B015C012FE632E143E80F
:1005A00053E40E9497030E9480030E9409046B0198
:1005B0007C01EB012FE632E143E85FE3C501B401C2
:1005C0000E9497034B015C01B60180E090E00E941D
:1005D00038049B01AC01C501B4010E9497039B0143
:1005E000AC0160E070E080E893E40E9413030E9495
:1005F000090483B7856083BF209749F062BF08B6BE
:1006000000FEFDCF88B7816088BF2197F5CF13BE6C
:10061000DF91CF91FF90EF90DF90CF90BF90AF90A0
:100620009F908F9008955058BB27AA270E942B03B4
:100630000C94B5040E94A70438F00E94AE0420F088
:1006400039F49F3F19F426F40C94A4040EF4E095B9
:10065000E7FB0C947504E92F0E94C60458F3BA17FF
:10066000620773078407950720F079F4A6F50C94C8
:1006700000050EF4E0950B2EBA2FA02D0B01B90149
:1006800090010C01CA01A0011124FF27591B99F008
:10069000593F50F4503E68F11A16F040A22F232F14
:1006A000342F4427585FF3CF469537952795A79564
:1006B000F0405395C9F77EF41F16BA0B620B730B0B
:1006C000840BBAF09150A1F0FF0FBB1F661F771F7C
:1006D000881FC2F70EC0BA0F621F731F841F48F431
:1006E000879577956795B795F7959E3F08F0B0CFBA
:1006F0009395880F08F09927EE0F979587950895A1
:100700000E94E80490F09F3748F4911116F40C947D
:10071000010560E070E080E89FE3089526F01B1675
:10072000611D711D811D0C947B040C9496040E9424
:10073000AB030C94B5040E94AE0458F00E94A704C9
:1007400040F029F45F3F29F00C94750451110C948A
:1007500001050C94A4040E94C60468F39923B1F324
:10076000552391F3951B550BBB27AA2762177307D7
:10077000840738F09F5F5F4F220F331F441FAA1F6B
:10078000A9F335D00E2E3AF0E0E832D09150504027
:10079000E695001CCAF72BD0FE2F29D0660F771FD5
:1007A000881FBB1F261737074807AB07B0E809F0BB
:1007B000BB0B802DBF01FF2793585F4F3AF09E3F40
:1007C000510578F00C9475040C9401055F3FE4F337
:1007D000983ED4F3869577956795B795F7959F5F83
:1007E000C9F7880F911D9695879597F90895E1E0CF
:1007F000660F771F881FBB1F621773078407BA072E
:1008000020F0621B730B840BBA0BEE1F88F7E09588
:1008100008950E94CE0488F09F5798F0B92F992729
:10082000B751B0F0E1F0660F771F881F991F1AF0DB
:10083000BA95C9F714C0B13091F00E940005B1E03B
:1008400008950C940005672F782F8827B85F39F03A
:10085000B93FCCF3869577956795B395D9F73EF474
:1008600090958095709561957F4F8F4F9F4F08951C
:10087000E89409C097FB3EF490958095709561953A
:100880007F4F8F4F9F4F9923A9F0F92F96E9BB27F0
:100890009395F695879577956795B795F111F8CF6C
:1008A000FAF4BB0F11F460FF1BC06F5F7F4F8F4FD7
:1008B0009F4F16C0882311F096E911C0772321F0CD
:1008C0009EE8872F762F05C0662371F096E8862F65
:1008D00070E060E02AF09A95660F771F881FDAF7BC
:1008E000880F9695879597F9089597F99F6780E8FF
:1008F00070E060E00895882371F4772321F0985028
:10090000872B762F07C0662311F499270DC09051CD
:10091000862B70E060E02AF09A95660F771F881F9B
:10092000DAF7880F9695879597F908959F3F31F0EC
:10093000915020F4879577956795B795880F911D0D
:100940009695879597F908959FEF80EC0895002478
:100950000A941616170618060906089500240A9424
:1009600012161306140605060895092E0394000CAA
:1009700011F4882352F0BB0F40F4BF2B11F460FF39
:1009800004C06F5F7F4F8F4F9F4F089557FD905862
:10099000440F551F59F05F3F71F04795880F97FB43
:1009A000991F61F09F3F79F08795089512161306FD
:1009B0001406551FF2CF4695F1DF08C0161617062C
:1009C0001806991FF1CF8695710561050894089561
:1009D0000E94CE04A0F0BEE7B91788F4BB279F3869
:1009E00060F41616B11D672F782F8827985FF7CF10
:1009F000869577956795B11D93959639C8F30895B7
:100A0000E894BB2766277727CB0197F90895F894D8
:020A1000FFCF16
:020A12000300DF
:00000001FF
